{
  "contractName": "Voter",
  "abi": [
    {
      "inputs": [],
      "stateMutability": "payable",
      "type": "constructor",
      "payable": true
    },
    {
      "stateMutability": "payable",
      "type": "receive",
      "payable": true
    },
    {
      "inputs": [
        {
          "internalType": "string",
          "name": "_name",
          "type": "string"
        },
        {
          "internalType": "address payable",
          "name": "_victoryAccount",
          "type": "address"
        }
      ],
      "name": "addCandidate",
      "outputs": [],
      "stateMutability": "nonpayable",
      "type": "function"
    },
    {
      "inputs": [
        {
          "internalType": "address",
          "name": "_candidateAddress",
          "type": "address"
        }
      ],
      "name": "vote",
      "outputs": [],
      "stateMutability": "nonpayable",
      "type": "function"
    },
    {
      "inputs": [],
      "name": "declareVictory",
      "outputs": [],
      "stateMutability": "nonpayable",
      "type": "function"
    },
    {
      "inputs": [],
      "name": "getWinner",
      "outputs": [
        {
          "internalType": "string",
          "name": "",
          "type": "string"
        },
        {
          "internalType": "address",
          "name": "",
          "type": "address"
        },
        {
          "internalType": "uint256",
          "name": "",
          "type": "uint256"
        },
        {
          "internalType": "uint256",
          "name": "",
          "type": "uint256"
        }
      ],
      "stateMutability": "view",
      "type": "function",
      "constant": true
    }
  ],
  "bytecode": "0x608060405234600181905550336000806101000a81548173ffffffffffffffffffffffffffffffffffffffff021916908373ffffffffffffffffffffffffffffffffffffffff1602179055506111048061005a6000396000f3fe6080604052600436106100435760003560e01c806342307bdc146100685780634a2a84c51461007f5780636dd7d8ea146100a85780638e7ea5b2146100d157610063565b3661006357346001600082825461005a91906109af565b92505081905550005b600080fd5b34801561007457600080fd5b5061007d6100ff565b005b34801561008b57600080fd5b506100a660048036038101906100a19190610bbd565b6102c9565b005b3480156100b457600080fd5b506100cf60048036038101906100ca9190610c57565b6104f0565b005b3480156100dd57600080fd5b506100e6610771565b6040516100f69493929190610d2a565b60405180910390f35b60008054906101000a900473ffffffffffffffffffffffffffffffffffffffff1673ffffffffffffffffffffffffffffffffffffffff163373ffffffffffffffffffffffffffffffffffffffff161461018d576040517f08c379a000000000000000000000000000000000000000000000000000000000815260040161018490610de8565b60405180910390fd5b600073ffffffffffffffffffffffffffffffffffffffff16600460010160009054906101000a900473ffffffffffffffffffffffffffffffffffffffff1673ffffffffffffffffffffffffffffffffffffffff161415610222576040517f08c379a000000000000000000000000000000000000000000000000000000000815260040161021990610e54565b60405180910390fd5b600460010160009054906101000a900473ffffffffffffffffffffffffffffffffffffffff1673ffffffffffffffffffffffffffffffffffffffff166108fc6001549081150290604051600060405180830381858888f1935050505015801561028f573d6000803e3d6000fd5b5060008054906101000a900473ffffffffffffffffffffffffffffffffffffffff1673ffffffffffffffffffffffffffffffffffffffff16ff5b600073ffffffffffffffffffffffffffffffffffffffff168173ffffffffffffffffffffffffffffffffffffffff161415610339576040517f08c379a000000000000000000000000000000000000000000000000000000000815260040161033090610ec0565b60405180910390fd5b600073ffffffffffffffffffffffffffffffffffffffff16600260008373ffffffffffffffffffffffffffffffffffffffff1673ffffffffffffffffffffffffffffffffffffffff16815260200190815260200160002060010160009054906101000a900473ffffffffffffffffffffffffffffffffffffffff1673ffffffffffffffffffffffffffffffffffffffff161461040a576040517f08c379a000000000000000000000000000000000000000000000000000000000815260040161040190610f2c565b60405180910390fd5b60405180606001604052808381526020018273ffffffffffffffffffffffffffffffffffffffff1681526020016000815250600260008373ffffffffffffffffffffffffffffffffffffffff1673ffffffffffffffffffffffffffffffffffffffff1681526020019081526020016000206000820151816000019080519060200190610497929190610846565b5060208201518160010160006101000a81548173ffffffffffffffffffffffffffffffffffffffff021916908373ffffffffffffffffffffffffffffffffffffffff160217905550604082015181600201559050505050565b6000600260008373ffffffffffffffffffffffffffffffffffffffff1673ffffffffffffffffffffffffffffffffffffffff16815260200190815260200160002090508173ffffffffffffffffffffffffffffffffffffffff168160010160009054906101000a900473ffffffffffffffffffffffffffffffffffffffff1673ffffffffffffffffffffffffffffffffffffffff16146105c5576040517f08c379a00000000000000000000000000000000000000000000000000000000081526004016105bc90610f98565b60405180910390fd5b600360003373ffffffffffffffffffffffffffffffffffffffff1673ffffffffffffffffffffffffffffffffffffffff16815260200190815260200160002060009054906101000a900460ff1615610652576040517f08c379a000000000000000000000000000000000000000000000000000000000815260040161064990611004565b60405180910390fd5b6001600360003373ffffffffffffffffffffffffffffffffffffffff1673ffffffffffffffffffffffffffffffffffffffff16815260200190815260200160002060006101000a81548160ff0219169083151502179055508060020160008154809291906106bf90611024565b91905055506004600201548160020154111561076d5780600460008201816000019080546106ec9061109c565b6106f79291906108cc565b506001820160009054906101000a900473ffffffffffffffffffffffffffffffffffffffff168160010160006101000a81548173ffffffffffffffffffffffffffffffffffffffff021916908373ffffffffffffffffffffffffffffffffffffffff160217905550600282015481600201559050505b5050565b606060008060006004600001600460010160009054906101000a900473ffffffffffffffffffffffffffffffffffffffff166004600201546001548380546107b89061109c565b80601f01602080910402602001604051908101604052809291908181526020018280546107e49061109c565b80156108315780601f1061080657610100808354040283529160200191610831565b820191906000526020600020905b81548152906001019060200180831161081457829003601f168201915b50505050509350935093509350935090919293565b8280546108529061109c565b90600052602060002090601f01602090048101928261087457600085556108bb565b82601f1061088d57805160ff19168380011785556108bb565b828001600101855582156108bb579182015b828111156108ba57825182559160200191906001019061089f565b5b5090506108c89190610959565b5090565b8280546108d89061109c565b90600052602060002090601f0160209004810192826108fa5760008555610948565b82601f1061090b5780548555610948565b8280016001018555821561094857600052602060002091601f016020900482015b8281111561094757825482559160010191906001019061092c565b5b5090506109559190610959565b5090565b5b8082111561097257600081600090555060010161095a565b5090565b6000819050919050565b7f4e487b7100000000000000000000000000000000000000000000000000000000600052601160045260246000fd5b60006109ba82610976565b91506109c583610976565b9250827fffffffffffffffffffffffffffffffffffffffffffffffffffffffffffffffff038211156109fa576109f9610980565b5b828201905092915050565b6000604051905090565b600080fd5b600080fd5b600080fd5b600080fd5b6000601f19601f8301169050919050565b7f4e487b7100000000000000000000000000000000000000000000000000000000600052604160045260246000fd5b610a6c82610a23565b810181811067ffffffffffffffff82111715610a8b57610a8a610a34565b5b80604052505050565b6000610a9e610a05565b9050610aaa8282610a63565b919050565b600067ffffffffffffffff821115610aca57610ac9610a34565b5b610ad382610a23565b9050602081019050919050565b82818337600083830152505050565b6000610b02610afd84610aaf565b610a94565b905082815260208101848484011115610b1e57610b1d610a1e565b5b610b29848285610ae0565b509392505050565b600082601f830112610b4657610b45610a19565b5b8135610b56848260208601610aef565b91505092915050565b600073ffffffffffffffffffffffffffffffffffffffff82169050919050565b6000610b8a82610b5f565b9050919050565b610b9a81610b7f565b8114610ba557600080fd5b50565b600081359050610bb781610b91565b92915050565b60008060408385031215610bd457610bd3610a0f565b5b600083013567ffffffffffffffff811115610bf257610bf1610a14565b5b610bfe85828601610b31565b9250506020610c0f85828601610ba8565b9150509250929050565b6000610c2482610b5f565b9050919050565b610c3481610c19565b8114610c3f57600080fd5b50565b600081359050610c5181610c2b565b92915050565b600060208284031215610c6d57610c6c610a0f565b5b6000610c7b84828501610c42565b91505092915050565b600081519050919050565b600082825260208201905092915050565b60005b83811015610cbe578082015181840152602081019050610ca3565b83811115610ccd576000848401525b50505050565b6000610cde82610c84565b610ce88185610c8f565b9350610cf8818560208601610ca0565b610d0181610a23565b840191505092915050565b610d1581610c19565b82525050565b610d2481610976565b82525050565b60006080820190508181036000830152610d448187610cd3565b9050610d536020830186610d0c565b610d606040830185610d1b565b610d6d6060830184610d1b565b95945050505050565b7f4f6e6c792074686520696e69746961746f722063616e20636f6e636c7564652060008201527f74686520766963746f72792e0000000000000000000000000000000000000000602082015250565b6000610dd2602c83610c8f565b9150610ddd82610d76565b604082019050919050565b60006020820190508181036000830152610e0181610dc5565b9050919050565b7f566f74696e6720686173206e6f7420636f6d6d656e636564207965742e000000600082015250565b6000610e3e601d83610c8f565b9150610e4982610e08565b602082019050919050565b60006020820190508181036000830152610e6d81610e31565b9050919050565b7f566963746f7279206163636f756e742063616e206e6f74206265203078300000600082015250565b6000610eaa601e83610c8f565b9150610eb582610e74565b602082019050919050565b60006020820190508181036000830152610ed981610e9d565b9050919050565b7f43616e64696461746520616c726561647920726567697374657265642e000000600082015250565b6000610f16601d83610c8f565b9150610f2182610ee0565b602082019050919050565b60006020820190508181036000830152610f4581610f09565b9050919050565b7f43616e64696461746520646f6573206e6f742065786973742e00000000000000600082015250565b6000610f82601983610c8f565b9150610f8d82610f4c565b602082019050919050565b60006020820190508181036000830152610fb181610f75565b9050919050565b7f566f7465722068617320616c726561647920766f746564210000000000000000600082015250565b6000610fee601883610c8f565b9150610ff982610fb8565b602082019050919050565b6000602082019050818103600083015261101d81610fe1565b9050919050565b600061102f82610976565b91507fffffffffffffffffffffffffffffffffffffffffffffffffffffffffffffffff82141561106257611061610980565b5b600182019050919050565b7f4e487b7100000000000000000000000000000000000000000000000000000000600052602260045260246000fd5b600060028204905060018216806110b457607f821691505b602082108114156110c8576110c761106d565b5b5091905056fea2646970667358221220ff79d7c3293b972190f706fb52fc075ee72c6d6989b75e85c4c44fa969cbadb464736f6c634300080b0033",
  "immutableReferences": {},
  "source": "pragma solidity 0.8.11;\n\ncontract Voter {\n\n    struct Candidate {\n        string name;\n        address payable victoryAccount;\n        uint voteCount;\n    }\n\n    address payable internal sourceAddress;\n    uint internal victoryAmount;\n\n    mapping(address => Candidate) private candidates;\n\n    mapping(address => bool) private voters;\n\n    Candidate private winner;\n\n    //Require initial payment in etherium to be sent to the victory account once decision is made.\n    constructor() payable {\n        victoryAmount = msg.value;\n        sourceAddress = payable(msg.sender);\n    }\n\n    function addCandidate(string memory _name, address payable _victoryAccount) public {\n        //require that candidate address does not exist already.\n        require(_victoryAccount != address(0), \"Victory account can not be 0x0\");\n        require(candidates[_victoryAccount].victoryAccount == address(0), \"Candidate already registered.\");\n\n        candidates[_victoryAccount] = Candidate(_name, _victoryAccount, 0);\n    } \n\n    function vote(address _candidateAddress) external {\n        Candidate storage c = candidates[_candidateAddress];\n        //Require that the candidate exists with the _candidateAddress\n        require(c.victoryAccount == _candidateAddress, \"Candidate does not exist.\");\n\n        //Require that the voter has not already voted yet.\n        require(!voters[msg.sender], \"Voter has already voted!\");\n\n        voters[msg.sender] = true;\n        c.voteCount++;\n        if(c.voteCount > winner.voteCount) {\n            winner = c;\n        }\n    }\n\n    // Receive function to receive the ether funds. This is required otherwise contract will not be able to recieve funds\n    // with empty calldata.\n    receive() external payable {\n        victoryAmount += msg.value;\n    }\n\n\n    //TODO: Secure this with ECDSA signature validation.\n    function declareVictory() public {\n        require(msg.sender == sourceAddress, \"Only the initiator can conclude the victory.\");\n        require(winner.victoryAccount != address(0), \"Voting has not commenced yet.\");\n\n        winner.victoryAccount.transfer(victoryAmount);\n        selfdestruct(sourceAddress);\n    }\n\n    function getWinner() public view returns (string memory, address, uint, uint) {\n        return (winner.name, winner.victoryAccount, winner.voteCount, victoryAmount);\n    }\n}",
  "sourcePath": "/home/prithu/workspace/pet-shop-tutorial/contracts/Voter.sol",
  "compiler": {
    "name": "solc",
    "version": "0.8.11+commit.d7f03943.Emscripten.clang"
  },
  "schemaVersion": "3.4.4",
  "updatedAt": "2022-01-09T10:54:05.991Z",
  "networkType": "ethereum",
  "devdoc": {
    "kind": "dev",
    "methods": {},
    "version": 1
  },
  "userdoc": {
    "kind": "user",
    "methods": {},
    "version": 1
  }
}